:020000041000EA
:1000000000B5324B212058609868022188439860DF
:10001000D860186158612E4B002199600221596106
:100020000121F02299502B49196001219960352056
:1000300000F044F80222904214D00621196600F024
:1000400034F8196E01211966002018661A6600F04E
:100050002CF8196E196E196E052000F02FF8012189
:100060000842F9D1002199601B49196000215960AB
:100070001A491B48016001219960EB211966A021F2
:10008000196600F012F800219960164914480160C1
:100090000121996001BC002800D000471248134993
:1000A000086003C880F30888084703B5996A0420EC
:1000B0000142FBD001200142F8D103BD02B5186610
:1000C0001866FFF7F2FF186E186E02BD00000240BE
:1000D000000000180000070000035F00212200005C
:1000E000F4000018222000A00001001008ED00E03C
:1000F00000000000000000000000000074B24E7A12
:1001000000200420F7010010C3010010C5010010F9
:10011000C1010010C1010010C1010010C101001097
:10012000C1010010C1010010C1010010C701001081
:10013000C1010010C1010010C9010010CB01001065
:10014000CD010010CD010010CD010010CD01001037
:10015000CD010010CD010010CD010010CD01001027
:10016000CD010010CD010010CD010010CD01001017
:10017000CD010010CD010010CD010010CD01001007
:10018000CD010010CD010010CD010010CD010010F7
:10019000CD010010CD010010CD010010CD010010E7
:1001A000CD010010CD010010CD010010CD010010D7
:1001B000CD010010CD010010CD010010CD010010C7
:1001C00000BE00BE00BE00BE00BE00BEEFF3058054
:1001D000103800BEF2EB8871241D00104C1D001079
:1001E0003802001090A31AE71E481F49086006C88D
:1001F00081F3088810471D480068002801D019487D
:10020000F3E70DA40ECC002902D000F012F8F9E7B4
:100210001749184A002000E001C19142FCD116495B
:100220008847164988471649884700BEFDE701C937
:1002300001C29A42FBD370474C1D0010C000002041
:1002400040020020CC1E001000000420000004200A
:10025000CC1E00100010042000100420000000003C
:10026000704700000000000008ED00E0000000D032
:10027000400200203C06002049160010D502001064
:1002800041160010F8B5C04606480749091A8B10F8
:10029000C90FC91810B5491003D0044B002B00D06A
:1002A000984710BD400200204002002000000000DE
:1002B000054B10B5002B03D00449054800E000BFF2
:1002C000FFF7E2FF10BDC04600000000000600205E
:1002D000F01B001010B500F007F8024801F00AFB0F
:1002E000002010BDF01B001010B501F0EFFB10BD99
:1002F000094A83009A1810B514684022544080328D
:100300002240064CC000A44663441A60044B9C463D
:100310006044416010BDC04604C0014004D00140AB
:10032000004001400FB400B5084883B001F0E2FA84
:10033000049B002B07D005A91800019101F066F974
:10034000034801F0D7FA012001F078F9001C0010F1
:10035000101C001070B5EFF3108C72B60D4D2B68A9
:10036000002BFCD0BFF35F8F0724CB08C618C05CFE
:1003700001230C40A3401C000440034207D1184352
:100380003070BFF35F8F2C608CF3108870BD10004D
:10039000FFF7C8FF2C0100D0044A1078431CDBB2E1
:1003A000172B00D9102313707047C0469801002006
:1003B0000021044B044ABFF35F8F02C39342FAD17A
:1003C0007047C046000100D0800100D0054B064AAE
:1003D0001360064A136053609360D36013615361E6
:1003E000936170478080808000E400E004E400E0D6
:1003F0001F2318401E3B8340002905D0C021044A1A
:100400004900535013607047802201498B50FAE72E
:1004100000E100E070B50D00EFF3108672B60F4AF0
:100420001368002BFCD0BFF35F8F0D4B10309B681F
:1004300084001B590B4A934203D09D4201D000F027
:100440001BFF074B9B681D51BFF35F8FBFF35F8F8F
:100450000022024B1A6086F3108870BD240100D080
:1004600000ED00E0CD010010F0B5DE4657464E46E7
:100470004546E0B50C0083B0EFF3108872B6634ACE
:100480001368002BFCD0BFF35F8F614B61499A6802
:10049000030010339F00D55901938D4243D0A542EC
:1004A00054D05D4EAA1B2F2A3DD85C4B9B461B683F
:1004B000994601231A009C4682404B4613401F2256
:1004C00099466346024093409A4680225B465046D6
:1004D0009850BFF35F8FEFF305839B46002B37D017
:1004E000019B5B4501D000F0C7FE01232A009A431F
:1004F0009068844208D176E04B005B189B00F318AB
:100500009868844236D01A00062151560029F3DA41
:10051000844254D04B46002B27D0C02251463F4B3B
:100520005200995019603A4B9B68DD51BFF35F8FC1
:10053000BFF35F8F0022354B1A6088F3108803B039
:10054000F0BCBB46B246A946A046F0BD0D00EAE7A6
:100550002A0063469A4390688442D5D106201056FB
:10056000130000280ADA0D0031E0802351462B4A9F
:10057000D150D8E706201856002821DB4200111878
:10058000890074188B46A1689960E179D9710621B8
:1005900061569971002924DBA488F11A6405241599
:1005A0005C44091909051E4C490D21439980131813
:1005B0001C4A9B001178F31899711070AAE7130078
:1005C0005946002914D1FF3191711749918015497D
:1005D0000A789A71154A9B1B5B415A43120D0A70A7
:1005E00098E71149E2E70620105613000028C5DA03
:1005F0000F4A1049D21A083A5002400D014399801F
:100600000D4952080A43DA8084E7C046240100D02D
:1006100000ED00E0CD0100109C01002000E100E0B1
:1006200000E0FFFF3806002001BDFFFFAAAA00007E
:10063000D601002000F0FFFF00F8FFFF70B5012495
:100640000443EFF30581EFF3108C72B6214A13686F
:10065000002BFCD0BFF35F8F1F4B05001F4AED1A24
:100660006D416A43120D1E4D8900AE6852B2765834
:10067000A6421CD00621595691421CD0122159562F
:10068000914222D01E215956914220D02A215956FA
:100690000324914210D0134B19781A708171BFF363
:1006A0005F8F00220B4B1A608CF3108870BDAB6813
:1006B0000D4C5C50EFE700246100091989005B18BC
:1006C000FF21997109499980E5E70124F4E70224A3
:1006D000F2E7C046240100D09C010020AAAA000035
:1006E00000ED00E038060020CD01001001BDFFFF45
:1006F000024B9C4661448900016070474000003411
:1007000070B5114C114DAC420FD2FF262368002B5F
:100710000CD0FFF741FE01002000FFF7E9FFA680A3
:10072000BFF35F8F0834AC42F0D370BDFFF734FEE7
:1007300001002000FFF7DCFF2671BFF35F8F083454
:10074000AC42E3D3F1E7C04638020020400200206B
:100750000A4B1968EFF3108072B60A68002AFCD0C1
:10076000BFF35F8F1B68BFF35F8F00221A6080F3B7
:10077000108840BF002000217047C0462C06002092
:10078000F0B5DE4657464E464546E0B587B0EFF336
:100790000583032201251A40954091008846A94609
:1007A000B34B03925C58B34B1D60B34B04934B4661
:1007B000B24843630823E55E002D37DAA3881BB2F5
:1007C000002B00DBADE0A379002B00D0EEE0082386
:1007D000E05E002820DB430062691B18DB00D318B1
:1007E0009E68DD68731C00D111E1A44801004144FA
:1007F000826A0B69B71A9B1A9F4215D30123026ABA
:10080000039883401A420FD09C4800F0C9FA8D42E9
:1008100002DCCCD18642CAD940BF07B0F0BCBB468F
:10082000B246A946A046F0BD0E61EDE762696B00D5
:1008300092465B19DB009A4453469E68DF6800F0DD
:10084000AFFA8F42BADC00D103E1002F00DAE8E012
:100850005246534652691B699346049A934200D10B
:10086000D9E052460821605E528800045946104380
:100870009847009001910099019A0B0010001343D2
:1008800000D1CEE013000A00B61A9F41002806DB13
:100890007A4800F085FA009E019F36184F41534672
:1008A0009E60DF6000229A5E002A00DA86E753002D
:1008B00099186069C900411802938B68C9689B4602
:1008C000B94200DD7AE702D1B34200D976E70823C6
:1008D0009C46A444059565462281A446029B2C00B3
:1008E00006E053009918C90041188D68C968AB46E5
:1008F0009B18DB00C318B94206DC00D1B3E01C0032
:100900000023E25E002AECDA230064469C4653464C
:100910001A806346059D1D80A3881BB2002B00DA58
:1009200051E72269EFF3108172B61368002BFCD0F7
:10093000BFF35F8F0123A7885B42A3803FB2236987
:10094000BFF35F8F00221A6081F31088002F00DA56
:1009500039E72300083322009A4666697B00DB19D9
:10096000DB00F318996850468C460824115FDD6857
:10097000002910DB029306E0AB4244D00023E15E85
:100980002000002906DB4C006418E4003419E368F9
:10099000AB42F1DD029B078000201F5E1980002F13
:1009A000DCDA1400A379002B00D110E70023A37137
:1009B00026000823E15E08364B1C00D12CE7080016
:1009C000A246656902E03E004B1C1AD04B005B1842
:1009D000DB00EF180A008C46E95E7B881BB2002B17
:1009E000F1DA01235B42DC17BB60FC60824205D078
:1009F000534631801B893B8053461A8160464B1C0D
:100A0000E4D15446E5E6A3686345B7D9C2E76B1C59
:100A100000D0EAE6F8E65B4658461B69984700288E
:100A20001BD153461B8822692381EFF3108372B6D2
:100A300011680029FCD0BFF35F8F514662880A809D
:100A400022696580BFF35F8F0021116083F31088F6
:100A5000B4E6864200D8F8E6B0E65B461A685B6802
:100A60000092019307E7B34500D848E74CE7C0463A
:100A7000180600203C70054081070010004005402A
:100A800070B52E4C2569002D04D00A212C48FFF7A3
:100A90002FFE70BD2B4E0321300000F077F9E66089
:100AA000FFF77AFC284B03229C46D02322701B06BA
:100AB0001B6801216370254B6044A3600F238000F5
:100AC00020610220638063694942A180198002315C
:100AD000198647311D83585218315A5275325C3984
:100AE0009952183201319952183201319952183203
:100AF00001319952083518329D52023118329952FB
:100B0000183201319952183201319952183201319B
:100B100099521832013199521832013199520C4BC5
:100B20000C49DC6001303562FFF774FC01210320C1
:100B3000FFF75EFC084B1D60A7E7C046E4010020FC
:100B40002C0600200040054040000034FFFF10004C
:100B500018060020810700103860054070B50100BC
:100B60000469EFF3108C72B620680028FCD0BFF344
:100B70005F8F02200D5E4C6968004019C000241888
:100B80000869002D36DB26884E80BFF35F8F002674
:100B900006608CF31088E360638804980133206159
:100BA0005B0405985B0CA26060611A1C002B1FD0CF
:100BB00093B22804628018430A69EFF3108C72B66E
:100BC0001368002BFCD0BFF35F8F8B8823808D8050
:100BD0000B69BFF35F8F00221A608CF310880B78CB
:100BE00001329A40CB6808498C4663441A6070BD54
:100BF0000122DDE7BFF35F8F002303608CF31088D1
:100C000001204042F3E7C0463C20000010B5438974
:100C10000A1493421ADD53009B184269DB00D31873
:100C20000469EFF3108C72B62268002AFCD0BFF37F
:100C30005F8F5A88090494B2090C8A4208D003696C
:100C4000BFF35F8F00221A608CF31088002010BD64
:100C50008022120214435C80012302698371BFF376
:100C60005F8F002111608CF31088044902788C4654
:100C70009340C268012062441360E8E73C20000012
:100C8000F0B557464E46DE464546E0B506000F0035
:100C900085B0EFF3058399468B46002B12D0384977
:100CA00000204B6ABB4206D38A6ADB1B591E8B416C
:100CB000B2424041184305B0F0BCBB46B246A9461B
:100CC000A046F0BD2F4B9A46DB68984653461B78EA
:100CD0004046039300F064F84246039B040004334B
:100CE0009B009B580D001B1A39003000001BA941C6
:100CF000894510DC0DD020BF214A0020536A5B4596
:100D0000D9D3926ADB1B591E8B41B2424041184332
:100D1000D1E78342EFD900F04BF832003B00121AC2
:100D20008B41002B1ADB00230193174B32000093F9
:100D300050463B00FFF712FF011E0FDD104B5A6AB1
:100D40005A451BD39B6AB34216D35046FFF75EFF4A
:100D50000B4A0020536A5B45ADD3D2E7084A002016
:100D6000536A5B45A7D30020926ADB1BB242404125
:100D70005A1E934118439EE75A45E6D120BFE4E747
:100D800000400540E40100205107001010B5024A60
:100D90000248FFF7DFFA10BD141C0010C805002040
:100DA0000300416A0A00986A596A8A42FAD1704778
:100DB000034B596A0A00986A596A9142FAD17047FE
:100DC0000040054070B504000D00174A536A190031
:100DD000966A536A8B42FAD13000190024184D41AB
:100DE000AB4216D813D0104B2A005B6A9D4203D940
:100DF0000D494B6A9342FCD3934207D10A4A02E061
:100E0000516A994202D1916AA142F9D370BDA642BA
:100E1000E9D9054B5B6A1C005A1CEFD00122012462
:100E20006442E5175242E3E700400540F8B504008C
:100E300006200D0000F078F9002844D0374B3849DF
:100E4000E3185A1E93418022120494465B429B0D84
:100E5000344A9B0563441360334A136018000A68E0
:100E60009043FBD12D4B314AE31859424B4180212D
:100E70005B0049000620995200F056F92900C00095
:100E800000F0D8FA0130C3091ED140270122626266
:100E9000A362266BF30722D4E36A254B0620E518EC
:100EA00000232B60266300F03FF93900800000F03A
:100EB000C1FA7023E26A5A400E3313402B601D4B77
:100EC00023630323A364F8BD1B4A93421ED9002366
:100ED0001A4A1B4F6262A362266BF307DCD5194BDB
:100EE000144AE3181A60656AA36A0620AD01ED187A
:100EF00000F01AF9144900F09DFAAD020100280033
:100F000000F098FA0021FFF75DFFC5E74006800E6C
:100F10009F011A003F180300B9E7C0460080FCBFDC
:100F200008C0004000E0004000F000403006002013
:100F30002C10000001030000FEFF0000FFFF000076
:100F4000C0FF3F00303000004E0E0000F8B5DE4616
:100F50004E4657464546E0B58B4605000A991800AF
:100F6000160000F067FA0A9B6C001F02324B6419EE
:100F70009C46A4006444636881469F4200D9676030
:100F80002B1FDBB29846012B30D9C02380229B0156
:100F9000E31812011A60294BAD0059599A460029ED
:100FA0001BD17301E026226853401E408023424635
:100FB0005B01E3181E60012A30D9802380229B0147
:100FC000E31812011A6053464A4667605A51F0BC52
:100FD000BB46B246A946A046F8BD586900F02AFAB9
:100FE000013043001B18033BFDD2DAE75B46012BBF
:100FF000CBD1C02303229B01E3181A60023AA368F5
:101000001A42FCD07301E0262268AD0053401E4016
:1010100080230A4A5B019246E3181E605A46216803
:10102000514003220A401A6001225B469A40A3689D
:101030001A42FCD0C1E7C04600800040CC05002029
:10104000F0B546464F46D646C0B51F00344B440067
:101050009C462418A4006444636888461600FF2B4D
:1010600002D880235B006360031FDBB29A46012B2A
:1010700030D9C02380229B01E31812011A60294B4A
:1010800085005959994600291BD17301E026226831
:1010900053401E40802352465B01E3181E60012A24
:1010A00030D9802380229B01E31812011A6080232B
:1010B0005B0063604B465F51E0BCBA46B146A84650
:1010C000F0BD586900F0B6F9013043001B18033B2E
:1010D000FDD2DAE74346012BCBD1C02303229B018B
:1010E000E3181A60023AA3681A42FCD07301E026A2
:1010F0002268850053401E4080230A4A5B019146C6
:10110000E3181E6042462168514003220A401A60DB
:10111000012342469340A2681342FCD0C1E7C04677
:1011200000800040CC050020014B8000C058704773
:10113000CC050020F8B5040021481E0017000D0062
:1011400000F078F90100380000F074F9069B3604CD
:101150001B031E432368002B20DB1A4B1A49E3189C
:101160005A1E93418022920194465B421B0B174A00
:101170001B0363441360164A13601F000A689743F9
:10118000FBD1144B2560E2182123A0601360236873
:10119000002BFCDA0823E6601360F8BD3F232268C9
:1011A0001340AB42D9D1A3681B051B0D8342D4D198
:1011B000EE22E368D2021340B342CED1EDE7C0463F
:1011C000001BB7000040FDBF08C0004000E0004029
:1011D00000F00040043000008023024A9B000B43D3
:1011E000D362704700800540002310B50100988A43
:1011F0001B8B984710BDC046162310B501001888F8
:1012000002331B88984710BDF8B54746CE4680B5D7
:101210000F1E18D01423994604330400002501261C
:1012200098464B461888434621681B88984701C456
:10123000431E984101350640AF42F2D13000C0BC98
:10124000B946B046F8BD0126F8E7C046AA23064ACB
:101250001B0113608D235B00D3600449044B1960AC
:101260005368002BFCDA70470040024000B0FA00DF
:10127000006002407047C04610B50148FFF752F8C1
:10128000381C001070B5074D074EB54209D2002436
:10129000013E761BB60808CD984723000134B342BF
:1012A000F9D170BDB01B0010EC1B0010054B064AB5
:1012B00006491A60064A074B1A6010000B689843EB
:1012C000FBD1704700E00040BFCDFBFE08C00040EE
:1012D000FE7F3C0000F00040044BDB6C002B03D190
:1012E0008022034BD2021A607047C04600001150A2
:1012F0004C201150044A054B1A60054A1368DB0163
:101300008033FBD17047C046FFFFFF0100F0004073
:1013100008C000404022034B9A675A671A67DA6692
:101320007047C04600F0014010B5FFF741F810BD0E
:1013300070B5044D044CA968C022200000F058F993
:10134000AC6070BD00ED00E000000020002310B58F
:10135000294C82B0A367FFF779FF0122274B1A605F
:10136000636C012BFCD10322254B1A60224A936B3C
:10137000012BFCD1013300930121224A224804337E
:10138000FFF7D8FE052301210093204A2048FFF7EC
:10139000D1FE0022022104201E4BFFF751FE002245
:1013A000012105201C4BFFF74BFE002200210720E6
:1013B0001A4BFFF745FE002200210820174BFFF7CC
:1013C0003FFE8023DB000093002200210920134B05
:1013D000FFF7BCFD0022104B00210620FFF730FE76
:1013E0000420FFF7A1FE0E4900F024F801000020C0
:1013F000FFF7F2FE02B010BD008000403CB000409C
:1014000030B00040002F685900800240008C8647B1
:1014100000C00240001BB70040597307006CDC029B
:1014200040420F0001480421014B184700020020F0
:1014300009120010114A936F9B0813D2106651666F
:10144000002905D0FFE7FFE7FFE7516F106F7047F6
:1014500004B5002801D00020C04300F099FB002112
:1014600004BDC046F0B5146E556E576F166FFFF78A
:10147000E5FF1466556657671667F0BD000000D09B
:10148000132370B51D78012D19D014DD1F48FFF707
:10149000B3FE06001E48FFF7AFFE1E4C802231004F
:1014A000200000F0A5F8022D2DD01B48FFF79CFE70
:1014B0001A4B186070BD1A4B164CA364F5E7184B15
:1014C000144C23606360A360E36023616361A361E4
:1014D000E36123626362A362E36223636363A363E2
:1014E000E36323646364A364E36423656365A365C2
:1014F000E36523666366A366E36623676367A367A2
:10150000E367A364D1E7064BA364CEE7534400002E
:1015100053460000C00300204C3300002806002082
:101520002515001007B5604601880A0A0230DF2A37
:10153000FAD1C9B2820804D302884088000410435B
:1015400000E00068014A5050039007BDC00300202E
:10155000132310B512481C78FFF74EFE0100012C32
:101560000AD003DD80220F4800F042F80E48FFF752
:101570003BFE0E4B186010BD0A4C5422200000F0B8
:1015800037F80B4B6365A365E36523666366A36663
:10159000E36623676367A367E3672362E361E5E7C5
:1015A00053460000C00400204C33000028060020F1
:1015B000B515001007B5604601880A0A0230DF2A17
:1015C000FAD1C9B2820804D30288408800041043CB
:1015D00000E00068014A5050039007BDC00400209D
:1015E00001480421014B1847100200200912001085
:1015F000014B5B68184700001002002010B500285E
:1016000000D110BD00F02CF9FBE7C04610B5094A27
:101610000300146884B0002C08D001220091064811
:10162000524203A9A047012004B010BD00F062F9A6
:101630000020F9E7FC050020FD15001000BEFDE7C5
:1016400010B5FFF7FBFFC04670B5FFF71BFE074D57
:10165000074EB54209D20024013E761BB60808CDDC
:10166000984723000134B342F9D170BDEC1B001040
:10167000F01B0010030010B5080011001B6898470C
:1016800010BDC046F0B5C64600B5437D07000C004E
:101690001600002B46D0002A17DD0B780A2B24D029
:1016A00000239846012E13D001252900635C0135E3
:1016B0000A2B26D0B542F8D1464509DCA419013CD5
:1016C00023780D3B5A4253413B7580BCB846F0BD70
:1016D0004346E018A419F11A013C3B689847237867
:1016E0000D3B5A4253413B75EFE7037D002BD7D1A9
:1016F00002210F483B689847012EDFD0012398460E
:10170000D2E7631E5B5C0D2BD4D0884504DA4346D8
:10171000C91AE0183B689847022105483B68A8466B
:101720009847C7E70368110020009847CDE7C046F7
:10173000041D0010F0B54546DE464E465746E0B55E
:1017400083B091461C0080460D00FFF731FB00235B
:10175000304A12184B41002B02DA01222E4B524222
:101760002E4908008A4600F01BFA07006B1C03D1C3
:10177000404600F0D3F90500002C27D0284E294B15
:101780001C68002C18D04B46002B21D1264B9946C3
:1017900002E02469002C0FD02368002BF9D04B46BF
:1017A0001B68002B01D09C42F3D120002A00414647
:1017B000B0472469002CEFD1002F26D1280003B0B8
:1017C000F0BCBB46B246A946A046F0BD174ED6E7D0
:1017D000154B99460A239B4602E02469002CEBD066
:1017E0002368002BF9D04B461B68002B01D0A34285
:1017F000F3D12A0041462000B0476B465A462000EC
:10180000DA71D91D0122B047E7E7504600F0B8F978
:10181000D4E7C04640420F00FFFFFF7F38020020A0
:1018200085160010F4050020F8050020751600103C
:101830000A4A1368002B05D10CE01A001B6910320C
:10184000002B07D08342F8D1002902D1186910601B
:10185000196170470029FCD01060FAE7F4050020F8
:10186000F0B5CE46474680B583B06B460600DD1D19
:101870002870FFF79DFA0023194A12184B41002BDC
:1018800002DA0122174B524217490800884600F03D
:1018900087F9164B81461C68002C14D0144F02E0C7
:1018A0002469002C0FD02368002BF9D03B68002B53
:1018B00001D09C42F4D1200001222900FFF7E2FE72
:1018C0002469002CEFD14B46002B05D1300003B02A
:1018D000C0BCB946B046F0BD404600F051F9F5E74E
:1018E00040420F00FFFFFF7F38020020F405002078
:1018F000F805002070B5040000F010F90123010084
:10190000050001222000FFF715FF084B1C68002C82
:1019100006D06368002B05D098472469002CF8D1C5
:10192000280070BD2469002CF3D1F9E7F4050020EC
:10193000F0B5002915DD0E4B0D271A680D4B0E4C26
:10194000D3185D426B41451820215B001E5F04786F
:10195000A64207D093691942FCD101301460A84215
:10196000F5D1F0BD93691942FCD11760F2E7C0468A
:10197000340600200080FCBF30060020204B70B5EC
:1019800004000D1E1E682ADD002010211D4B013CA5
:101990001A689369194214D1013093691942FCD134
:1019A000136823548542F4D1002E08D0502393634A
:1019B000516B183B0B4014498C466244136028005D
:1019C00070BD002E08D050239363516B183B0B4021
:1019D0000D498C46624413600028F1D10CE0002EC2
:1019E0000AD05022074B1B689A63596B183A0A4079
:1019F00005498C4663441A6003204042E0E7C04634
:101A0000C00500203406002034100000064B10B53D
:101A10001B68002B06D00021044A12689163044A17
:101A20001068984710BDC046C0050020340600204D
:101A3000C40500200822034B19688B691A42FCD1A7
:101A40007047C04634060020F8B51A4F1A4B3A6862
:101A50000500D31858424341184E14331C00336814
:101A6000002D02D0002B0FD0F8BD002BFCD00021A0
:101A700020009563FEF7BCFC20001149FEF7F4FC42
:101A8000104B35601D60EFE70E4B200019600C49CC
:101A90003560FEF7BFFC01212000FEF7A9FC5022B3
:101AA0003B689A63596B183A0A4007498C4663446D
:101AB0001A60D9E7340600200080FCBFC005002072
:101AC0000D1A0010C4050020341000000D4B10B595
:101AD0001B780D4B0D4C1B780D4B02211B780D4BC9
:101AE00000202360FEF704FC02210120FEF700FC29
:101AF000E12120684902FFF799F901210648FFF723
:101B000097FE10BD481D0010441D00103406002033
:101B1000401D0010004003402002002010B5830744
:101B20000AD00300032102E001330B4205D01A78EA
:101B3000002AF9D1181A10BD030019680C4A0D4C7F
:101B40008A188A4322420FD15968094A04338A18F5
:101B50008A43224208D15968054A04338A188A43C5
:101B60002242F1D000E001331A78002AFBD1E1E7EC
:101B7000FFFEFEFE80808080F8B5C04600000000B9
:101B800001B40248844601BC604700BF59010020EF
:101B900001B40248844601BC604700BF81010020B7
:101BA00001B40248844601BC604700BFC100002068
:101BB000AD120010D912001025140010E11500100C
:101BC00081140010511500104D130010F512001073
:101BD0001513001029130010010700103113001015
:101BE000810A001075120010CD030010B102001020
:101BF00048656C6C6F2C20776F726C64210000005C
:101C00000A2A2A2A2050414E4943202A2A2A0A0019
:101C10000A000000486172647761726520616C613E
:101C2000726D20256420616C726561647920636C3B
:101C300061696D65640000004861726420617373BE
:101C40006572740052656C6561736500626F6F74D4
:101C5000325F77323571303830000000322E312E4D
:101C6000310000007069636F0000000068656C6CF3
:101C70006F5F776F726C64004D6172203232203278
:101C8000303235005541525420737464696E00003F
:101C900055415254207374646F7574005541525409
:101CA00020737464696E202F207374646F757400E0
:101CB00006005250D3F07542441C001006005250EA
:101CC000E182887F4C1C001006005250ABB3605379
:101CD0005C1C001006005250BBFF3CB6641C001098
:101CE00006005250861C03026C1C00100600525065
:101CF0005422A29D781C001005005250DE65F46845
:101D0000CC1E00100D0A00000600525053B4F4A17E
:101D10009C1C001008005250120000000800525095
:041D2000921000001D
:101D2400B01C0010BC1C0010C81C0010D41C0010F7
:101D3400E01C0010EC1C0010F81C00101C1D00100E
:081D4400141D0010081D001021
:101D4C00F0B5C646150000B504001E000268EFF39E
:101D5C00108172B61368002BFCD0BFF35F8F042385
:101D6C00E3562268002B2BDBBFF35F8F0020106043
:101D7C0081F31088D02212061278002752B29046B6
:101D8C009A420ED1002080BCB846F0BDBFF35F8FE5
:101D9C00176081F310882800310000F035F8002816
:101DAC00F0D12268EFF3108172B61368002BFCD0CF
:101DBC00BFF35F8F237922687F2BE7D9434602E07C
:101DCC00D0231B061B682371BFF35F8F00231360A6
:101DDC0081F310880120D6E70268EFF3108172B608
:101DEC001368002BFCD0BFF35F8FFF2303710368D4
:101DFC00BFF35F8F00221A6081F3108840BF7047D9
:101E0C007047C0460000000001B40248844601BC83
:101E1C00604700BF810C00101000000000000000A3
:101E2C0000000100000000000000000000000200A3
:101E3C000000000000000000000003000000000093
:101E4C00000000000000FF000000000001B5486821
:101E5C0001318E460047704609380149884701BD5B
:101E6C003D06001000000000000000000000000013
:101E7C0000000000000000004002002000000000F4
:101E8C00503300004C330000543300005233000038
:101E9C004D5300004D430000533400004334000008
:101EAC0031190010351A00107D190010491A001054
:101EBC000000000000010000000000000000000015
:04000005100001E9FD
:00000001FF
